{
    "contractName": "Recorder",
    "abi": [
        {
            "constant": true,
            "inputs": [
                {
                    "name": "",
                    "type": "uint256"
                }
            ],
            "name": "users",
            "outputs": [
                {
                    "name": "",
                    "type": "address"
                }
            ],
            "payable": false,
            "stateMutability": "view",
            "type": "function",
            "signature": "0x365b98b2"
        },
        {
            "constant": false,
            "inputs": [
                {
                    "name": "weight",
                    "type": "uint256"
                },
                {
                    "name": "height",
                    "type": "uint256"
                }
            ],
            "name": "writeData",
            "outputs": [
                {
                    "name": "",
                    "type": "bool"
                }
            ],
            "payable": false,
            "stateMutability": "nonpayable",
            "type": "function",
            "signature": "0xc71ba63b"
        },
        {
            "constant": true,
            "inputs": [
                {
                    "name": "user",
                    "type": "address"
                }
            ],
            "name": "viewData",
            "outputs": [
                {
                    "name": "",
                    "type": "uint256"
                },
                {
                    "name": "",
                    "type": "uint256"
                },
                {
                    "name": "",
                    "type": "uint256"
                }
            ],
            "payable": false,
            "stateMutability": "view",
            "type": "function",
            "signature": "0xbac61db7"
        },
        {
            "constant": true,
            "inputs": [
                {
                    "name": "user",
                    "type": "address"
                }
            ],
            "name": "isUserExist",
            "outputs": [
                {
                    "name": "",
                    "type": "bool"
                }
            ],
            "payable": false,
            "stateMutability": "view",
            "type": "function",
            "signature": "0x0255fa1e"
        }
    ],
    "bytecode": "0x608060405234801561001057600080fd5b50610544806100206000396000f3fe608060405234801561001057600080fd5b5060043610610069576000357c0100000000000000000000000000000000000000000000000000000000900480630255fa1e1461006e578063365b98b2146100ca578063bac61db714610138578063c71ba63b1461019e575b600080fd5b6100b06004803603602081101561008457600080fd5b81019080803573ffffffffffffffffffffffffffffffffffffffff1690602001909291905050506101ee565b604051808215151515815260200191505060405180910390f35b6100f6600480360360208110156100e057600080fd5b8101908080359060200190929190505050610292565b604051808273ffffffffffffffffffffffffffffffffffffffff1673ffffffffffffffffffffffffffffffffffffffff16815260200191505060405180910390f35b61017a6004803603602081101561014e57600080fd5b81019080803573ffffffffffffffffffffffffffffffffffffffff1690602001909291905050506102d0565b60405180848152602001838152602001828152602001935050505060405180910390f35b6101d4600480360360408110156101b457600080fd5b8101908080359060200190929190803590602001909291905050506103bc565b604051808215151515815260200191505060405180910390f35b600080600090505b600080549050811015610287578273ffffffffffffffffffffffffffffffffffffffff1660008281548110151561022957fe5b9060005260206000200160009054906101000a900473ffffffffffffffffffffffffffffffffffffffff1673ffffffffffffffffffffffffffffffffffffffff16141561027a57600191505061028d565b80806001019150506101f6565b50600090505b919050565b6000818154811015156102a157fe5b906000526020600020016000915054906101000a900473ffffffffffffffffffffffffffffffffffffffff1681565b600080600080600160008673ffffffffffffffffffffffffffffffffffffffff1673ffffffffffffffffffffffffffffffffffffffff1681526020019081526020016000206000015490506000600160008773ffffffffffffffffffffffffffffffffffffffff1673ffffffffffffffffffffffffffffffffffffffff1681526020019081526020016000206001015490506000600160008873ffffffffffffffffffffffffffffffffffffffff1673ffffffffffffffffffffffffffffffffffffffff1681526020019081526020016000206002015490508282829550955095505050509193909250565b6000804290506103cb336101ee565b15156104385760003390806001815401808255809150509060018203906000526020600020016000909192909190916101000a81548173ffffffffffffffffffffffffffffffffffffffff021916908373ffffffffffffffffffffffffffffffffffffffff160217905550505b83600160003373ffffffffffffffffffffffffffffffffffffffff1673ffffffffffffffffffffffffffffffffffffffff1681526020019081526020016000206000018190555082600160003373ffffffffffffffffffffffffffffffffffffffff1673ffffffffffffffffffffffffffffffffffffffff1681526020019081526020016000206001018190555080600160003373ffffffffffffffffffffffffffffffffffffffff1673ffffffffffffffffffffffffffffffffffffffff1681526020019081526020016000206002018190555060019150509291505056fea165627a7a723058208996a2e321a1d2b64ee48b76185da9a4fd8d97c76e1f3a67be2a787967066a360029",
    "source": "pragma solidity ^0.5.0;\n\ncontract Recorder {\n    \n    struct Data {\n        uint256 weight;\n        uint256 height;\n        uint256 time;\n    }\n    \n    address[] public users;\n    \n    mapping (address => Data) userToData;\n    \n    function writeData(uint256 weight, uint256 height) public returns(bool) {\n        uint256 time = block.timestamp;\n        if(!isUserExist(msg.sender)) {\n            users.push(msg.sender);\n        }\n        userToData[msg.sender].weight = weight;\n        userToData[msg.sender].height = height;\n        userToData[msg.sender].time = time;\n        return true;\n    }\n    \n    function viewData(address user) public view returns(uint256, uint256, uint256) {\n        uint256 weight = userToData[user].weight;\n        uint256 height = userToData[user].height;\n        uint256 time = userToData[user].time;\n        return (weight, height, time);\n    }\n    \n    function isUserExist(address user) public view returns(bool) {\n        for(uint i = 0; i < users.length; i++) {\n            if(users[i] == user) {\n                return true;\n            }\n        }\n        return false;\n    }\n    \n}",
    "sourcePath": "/Users/banana/dapps-sample/contracts/Recorder.sol",
    "compiler": {
        "name": "solc",
        "version": "0.5.2+commit.1df8f40c.Emscripten.clang"
    },
    "schemaVersion": "3.0.2",
    "updatedAt": "2019-05-20T14:30:47.995Z",
    "devdoc": {
        "methods": {}
    },
    "userdoc": {
        "methods": {}
    }
}